S00D000054756E65722E7372656309
S11300000C942B010C9451010C9451010C9451014A
S11300100C9451010C9451010C9451010C94510114
S11300200C9451010C9451010C9451010C94510104
S11300300C9451010C9451010C9451010C945101F4
S11300400C9451010C9451010C9451010C945101E4
S11300500C9451010C9451010C9451010C945101D4
S11300600C9451010C9451010C9451010C945101C4
S11300700C9451010C9451010C9451010C945101B4
S11300800C9451010C9451010C9451010C945101A4
S11300900C9451010C9451010C9451010C94510194
S11300A00C9451010C9451010C9451010C94510184
S11300B00C9451010C9451010C9451010C94510174
S11300C00C9451010C9451010C9451010C94510164
S11300D00C9451010C9451010C9451010C94510154
S11300E00C9451010C9451010C9451010C94510144
S11300F00C9451010C9451010C9451010C94510134
S11301000C9451010C9451010C9451010C94510123
S11301100C94D80B0C9451010C9451010C94510182
S11301200C9451010C9451010C9451010C94510103
S11301300C9451010C9451010C9451010C945101F3
S11301400C9451010C9451010C9451010C945101E3
S11301500C9451010C9451010C9451010C945101D3
S11301600C9451010C9451010C9451010C945101C3
S11301700C9451010C9451010C94260C0C945101D3
S11301800C9451010C9451010C9451010C945101A3
S11301900C9451010C9451010C9451010C94510193
S11301A00C9451010C9451010C9451010C94510183
S11301B00C9451010C9451010C9451010C94510173
S11301C00C9451010C9451010C9451010C94510163
S11301D00C9451010C9451010C9451010C94510153
S11301E00C9451010C9451010C9451010C94510143
S11301F00C9451010C9451010C945101080000001D
S1130200BE922449123EABAAAA2ABECDCCCC4C3E07
S113021000000080BEABAAAAAA3E00000000BF00F6
S11302200000803F0000000000084178D3BB4387F2
S1130230D1133D190E3CC3BD4282AD2B3E68EC8206
S113024076BED98FE1A93E4C80EFFFBE01C4FF7F8B
S11302503F000000000011241FBECFEFDFE3DEBF2C
S1130260CDBF00E00CBF18BE19BE1ABE1BBE12E201
S1130270A0E0B0E2E0E9F1E200E00BBF02C00790C9
S11302800D92AC33B107D9F71BBE12E2ACE3B2E274
S113029001C01D92A235B107E1F70E94640C0C94D1
S11302A0C6100C9400000F931F93BF93AF93DF937A
S11302B0CF9308ED11E0B0E0A4E3D0E0C0E40C93E8
S11302C01883CF91DF91AF91BF911F910F91089542
S11302D0CF92EF920F93CF93DF93CDB7DEB72E97E4
S11302E0CDBFDEBF8F83988769874A872B870C87AA
S11302F0ED86CE868985882F90E02F813885820F00
S1130300931F89839A838F81988502968B839C831C
S11303108F81988504968D839E838B85882F90E0AA
S11303200024969587950794969587950794982F1A
S1130330802D282F8C85882F90E082959295907F30
S11303409827807F9827282B8A85882F90E0880F0C
S1130350991F822B8960282F89819A81FC0120832F
S11303608D85882F90E0880F991F880F991F880F1B
S1130370991F982F8E85892B282F8B819C81FC01B6
S113038020838D819E8123E0FC01208380E096E020
S113039067E041E00E9428042E96CDBFDEBFDF91C6
S11303A0CF910F91EF90CF900895EF92FF920F931A
S11303B0CF93DF9300D000D0CDB7DEB789839A8383
S11303C06B837C834D835E8389819A812B813C81FD
S11303D0FC01208331838B819C812D813E81B90175
S11303E040E024E005E00F2EFCE0EF2EFF24F02D8A
S11303F00E9463072696CDBFDEBFDF91CF910F9198
S1130400FF90EF900895CF93DF9300D00F92CDB774
S1130410DEB789839A836B834C838C81882349F468
S113042089819A81FC01808191816EEF0E94B208DA
S113043008C089819A81FC01808191816CE70E94C6
S1130440B20889819A81FC01808191816B810E942B
S1130450B2082496CDBFDEBFDF91CF910895CF932C
S1130460DF9300D0CDB7DEB789839A836B8389810C
S11304709A81FC01808191816B810E94B20823964C
S1130480CDBFDEBFDF91CF910895CF93DF93CDB77A
S1130490DEB72597CDBFDEBF89839A836B834C83F8
S11304A02D8389819A816C814D810E9420038981E9
S11304B09A816B810E942F022596CDBFDEBFDF910A
S11304C0CF910895CF93DF930F920F92CDB7DEB7FC
S11304D089839A8389819A8161E040E00E940302C2
S11304E00F900F90DF91CF910895CF93DF930F92E8
S11304F00F92CDB7DEB789839A8389819A8164E1AB
S113050040E00E9403020F900F90DF91CF91089575
S1130510CF93DF930F920F92CDB7DEB789839A837F
S113052089819A8160E140E00E9403020F900F905C
S1130530DF91CF910895CF93DF930F920F92CDB7B0
S1130540DEB789839A8389819A816CE140E00E94B5
S113055003020F900F90DF91CF910895CF93DF9313
S11305600F920F92CDB7DEB789839A8389819A81DE
S113057068E140E00E9403020F900F90DF91CF9159
S11305800895CF93DF930F920F92CDB7DEB789838F
S11305909A8389819A816CE040E00E9403020F9063
S11305A00F90DF91CF910895CF93DF930F920F9225
S11305B0CDB7DEB789839A8389819A8168E040E068
S11305C00E9403020F900F90DF91CF910895CF9373
S11305D0DF930F920F92CDB7DEB789839A83898117
S11305E09A816EE040E00E9403020F900F90DF9129
S11305F0CF910895CF93DF930F920F92CDB7DEB7CB
S113060089839A8389819A816DE040E00E94030284
S11306100F900F90DF91CF910895CF93DF930F92B6
S11306200F92CDB7DEB789839A8389819A816CE072
S113063040E00E9403020F900F90DF91CF91089544
S1130640CF93DF93CDB7DEB72597CDBFDEBF8A83C7
S11306509B836C834D838C81882F90E08050904ED7
S1130660FC0190818D81890F89838981282F2058ED
S11306708A819B81622F40E00E9403022596CDBFB0
S1130680DEBFDF91CF910895CF93DF9300D00F9217
S1130690CDB7DEB78A839B836C838C8194E6692F04
S11306A00E945510892F8C838C81482F50E0CA01F9
S11306B0880F991F880F991F9C01220F331F220F47
S11306C0331F220F331F281B390BC901840F951FB9
S11306D024E630E0B9010E946E109B01C9018983B0
S11306E08981282F20588A819B81622F41E00E94B2
S11306F003022496CDBFDEBFDF91CF9108950F93FF
S1130700CF93DF93CDB7DEB72B97CDBFDEBF8D83FD
S11307109E836F83788749872A870B871C828B8502
S11307208B838A8589831DC08B818A8313C08C81C6
S1130730882F90E02F813885820F931FFC01208140
S11307408D819E81622F49812A810E9445028A817E
S11307508F5F8A838A81803150F31B8289818F5F06
S113076089838981823000F32B96CDBFDEBFDF9170
S1130770CF910F910895CF93DF9300D0CDB7DEB71B
S11307808B8382EA90E089839A8389819A81FC0130
S11307908081282F8B81882F90E0880F991F822BCE
S11307A0282F89819A81FC0120832396CDBFDEBF47
S11307B0DF91CF910895EF920F93CF93DF93CDB74D
S11307C0DEB72B97CDBFDEBF8D839E836F834887B3
S11307D029870A87EB868885882F90E00A962D81E1
S11307E03E81820F931F89839A838D819E8109960E
S11307F08B839C838D819E816F8140E00E942804BD
S11308008F81282F30E081E090E002C0880F991F8B
S11308102A95E2F7282F89819A81FC0120838B8114
S11308209C812985FC0120838D819E816F814B856C
S11308300E946F048D819E816F814A850E94A1046C
S11308402B96CDBFDEBFDF91CF910F91EF9008952E
S1130850CF93DF93CDB7DEB72897CDBFDEBF8D83AF
S11308609E836F8348878D819E81029689839A83B4
S11308708D819E8101968B839C8388858130A9F428
S11308808D819E8101968B839C838F81282F30E0FC
S113089081E090E002C0880F991F2A95E2F7282F83
S11308A08B819C81FC01208314C08D819E810296E2
S11308B089839A838F81282F30E081E090E002C001
S11308C0880F991F2A95E2F7282F89819A81FC01C4
S11308D020832896CDBFDEBFDF91CF910895CF93BB
S11308E0DF93CDB7DEB72797CDBFDEBF8C839D8363
S11308F06E834F838E81882F90E040962C813D81BA
S1130900820F931F89839A8389819A81FC01808154
S11309108B838F81813041F48B81282F20648981DE
S11309209A81FC01208307C08B81282F2F7B89812A
S11309309A81FC0120832796CDBFDEBFDF91CF9142
S11309400895CF93DF93CDB7DEB72797CDBFDEBF32
S11309508C839D836E834F838E81882F90E0409695
S11309602C813D81820F931F89839A8389819A8187
S1130970FC01808187708B839B818F81292F282B99
S113098089819A81FC0120832796CDBFDEBFDF9148
S1130990CF910895CF93DF93CDB7DEB72597CDBF21
S11309A0DEBF8B839C836D838B819C8189839A8337
S11309B08D81813031F489819A812FEFFC0120836C
S11309C004C089819A81FC0110822596CDBFDEBFC7
S11309D0DF91CF910895CF93DF93CDB7DEB72897FA
S11309E0CDBFDEBF8D839E836F8348878D819E81BB
S11309F0059689839A838D819E8106968B839C8339
S1130A008885882381F48F81282F30E081E090E06D
S1130A1002C0880F991F2A95E2F7282F8B819C81A9
S1130A20FC0120830FC08F81282F30E081E090E00B
S1130A3002C0880F991F2A95E2F7282F89819A818D
S1130A40FC0120832896CDBFDEBFDF91CF910895AE
S1130A50CF93DF93CDB7DEB72597CDBFDEBF8B83B2
S1130A609C836D838B819C81049689839A8389817D
S1130A709A812D81FC0120832596CDBFDEBFDF91B5
S1130A80CF910895CF93DF93CDB7DEB7F89481E08B
S1130A90DF91CF910895CF93DF930F920F92CDB74B
S1130AA0DEB789839A838FE390E029813A81F90143
S1130AB02081FC0120830F900F90DF91CF91089546
S1130AC0EF920F931F93CF93DF93CDB7DEB7609769
S1130AD0CDBFDEBF8F83988769877A874B875C8712
S1130AE02D870E871F87E88A8E859F8501968983C7
S1130AF09A8389859A858B839C838B859C850296B2
S1130B008D839E838F81988529853A85FC01208376
S1130B1031838F8198852B853C85FC012283338327
S1130B208F8198852E853F85FC01248335838F81B1
S1130B309885FC0117828B859C856D8540E023E0B8
S1130B4001E0EE24E3940E94DB038B859C856D8594
S1130B5040E00E9428048F8198852889FC0126831F
S1130B608E859F85688941E00E9428048E859F8533
S1130B70688941E00E94EB0489859A8560E00E94BF
S1130B80CA046096CDBFDEBFDF91CF911F910F9154
S1130B90EF900895CF93DF93CDB7DEB72897CDBFFD
S1130BA0DEBF8F8398878F819885FC01848195812E
S1130BB0059689839A838F819885FC018481958128
S1130BC006968B839C838F819885FC01808191811B
S1130BD008968D839E838F819885FC0184819581FD
S1130BE02F813885F9012681622F40E00E94EB04B1
S1130BF08D819E81FC0120818F819885FC01208755
S1130C008F81988521E0FC0127838F819885FC01E1
S1130C10848195812F813885F9012681622F41E0F5
S1130C200E94EB042896CDBFDEBFDF91CF910895DB
S1130C30CF93DF930F920F92CDB7DEB789839A8358
S1130C4089819A81FC0187810F900F90DF91CF9168
S1130C500895CF93DF93CDB7DEB72597CDBFDEBF21
S1130C608C839D838FE390E0FC0180818B830E94C1
S1130C7042058A830AC08C819D81FC018085898319
S1130C808C819D81FC0117821A828A81882399F7BD
S1130C90CE0103960E944B0589812596CDBFDEBF08
S1130CA0DF91CF910895CF93DF93CDB7DEB725972A
S1130CB0CDBFDEBF89839A836B834C835D83898137
S1130CC09A81FC01108289819A81FC0111828981B7
S1130CD09A81FC01128289819A812B81FC012383F0
S1130CE089819A812C813D81FC0124833583259659
S1130CF0CDBFDEBFDF91CF910895CF93DF93CDB702
S1130D00DEB76197CDBFDEBF8B879C876D877E87FB
S1130D104F87288B398B8B859C8589839A838B8518
S1130D209C8501968B839C838B859C8588968D837B
S1130D309E838B859C8589968F8398878D859E85D8
S1130D40019689879A8789819A812F85FC0120835E
S1130D5028898D819E81FC01208388899989892F26
S1130D609927282F8F819885FC0120838B819C8172
S1130D7021E1FC0120838D859E8560E041E00E9495
S1130D8028046196CDBFDEBFDF91CF910895CF9344
S1130D90DF93CDB7DEB72897CDBFDEBF89839A83B3
S1130DA06B837C832D833E834F8358872896CDBFE6
S1130DB0DEBFDF91CF910895CF93DF93CDB7DEB738
S1130DC06497CDBFDEBF8F87988B698B7A8B4B8BF3
S1130DD02C8B8F85988989839A838F85988901962E
S1130DE08B839C838F85988902968D839E838F85C0
S1130DF0988903968F8398878F8598890496898725
S1130E009A878F85988906968B879C878F85988982
S1130E1086968D879E8789819A8122E0FC012083B2
S1130E208B819C81FC0110828D819E81FC0110824A
S1130E308F819885FC01108289859A85FC01108236
S1130E408F8598896C890E9449078D859E8529899B
S1130E503A89FC01208331836496CDBFDEBFDF91E4
S1130E60CF910895CF93DF9300D00F92CDB7DEB723
S1130E708B839C838B819C81069689839A83898149
S1130E809A81FC0110822496CDBFDEBFDF91CF9101
S1130E900895CF93DF93CDB7DEB72597CDBFDEBFDF
S1130EA08B839C836D838B819C81069689839A8333
S1130EB089819A812D81FC0120832596CDBFDEBFD7
S1130EC0DF91CF910895EF92FF920F93CF93DF9329
S1130ED0CDB7DEB72997CDBFDEBF89839A836B83F5
S1130EE07C834D832E830F83E886F9868B819C81D6
S1130EF067E041E00E94EB048B819C8167E041E064
S1130F000E94280489819A816D810E94B807898191
S1130F109A81288539856E814F810E94E00720E9F6
S1130F2038E089819A8163E070E0F90119952CE435
S1130F3038E089819A8160E070E0F90119952EE624
S1130F4038E089819A8160E070E0F90119952AE21C
S1130F5038E089819A8160E070E0F9011995299659
S1130F60CDBFDEBFDF91CF910F91FF90EF90089539
S1130F70CF93DF93CDB7DEB72597CDBFDEBF8B838D
S1130F809C836D838B819C81049689839A83898158
S1130F909A81FC018081282F277E8D81882F90E003
S1130FA08E5E9F4DFC018081822B282F89819A813E
S1130FB0FC0120832596CDBFDEBFDF91CF9108953C
S1130FC0CF93DF93CDB7DEB72D97CDBFDEBF888734
S1130FD099876A874B872C873D87888599850696EC
S1130FE089839A838885998507968B839C838885D2
S1130FF0998504968D839E832C8589819A81FC0131
S113100020838B85992787FD909582959295907F73
S11310109827807F9827282F8C859D85892F99274D
S1131020822B282F8B819C81FC0120838D819E81C2
S1131030FC0180818B7F8F839F818A85292F282BB8
S11310408D819E81FC0120832D96CDBFDEBFDF9173
S1131050CF910895CF93DF93CDB7DEB72597CDBF5A
S1131060DEBF8B839C836D838B819C8105968983F2
S11310709A8389819A81FC018081982F9F738D8145
S1131080892B282F89819A81FC0120832596CDBF45
S1131090DEBFDF91CF910895CF93DF93CDB7DEB755
S11310A02597CDBFDEBF8B839C836D838B819C8111
S11310B0059689839A8389819A81FC018081982F7E
S11310C09F7C8D81892B282F89819A81FC01208323
S11310D02596CDBFDEBFDF91CF910895CF93DF93E7
S11310E0CDB7DEB72597CDBFDEBF8B839C836D83E1
S11310F08B819C81059689839A8389819A81FC01DD
S11311008081982F977F8D81892B282F89819A81BF
S1131110FC0120832596CDBFDEBFDF91CF910895DA
S1131120CF93DF93CDB7DEB72597CDBFDEBF8B83DB
S11311309C836D838B819C81059689839A838981A5
S11311409A81FC018081982F9C7F8D81892B282F87
S113115089819A81FC0120832596CDBFDEBFDF9172
S1131160CF910895CF93DF9300D0CDB7DEB78983B5
S11311709A836B83000089819A810E94CC0888231A
S1131180D1F389819A812B81FC0120832396CDBFE1
S1131190DEBFDF91CF910895CF93DF9300D000D0CD
S11311A0CDB7DEB78D839E838D819E8101968A8320
S11311B09B838A819B81FC01808180728C838C81DA
S11311C0882311F4198202C081E0898389812696DB
S11311D0CDBFDEBFDF91CF910895CF93DF9300D0D1
S11311E00F92CDB7DEB78B839C838B819C81FC01EE
S11311F080819181809689839A8389819A81FC0177
S1131200208131818B819C81FC01208731878981F8
S11312109A81FC01108211822496CDBFDEBFDF913A
S1131220CF910895CF93DF93CDB7DEB72A97CDBF83
S1131230DEBF89879A8789859A85FC018085918597
S1131240CC01A0E0B0E0BC01CD010E94C40EDC01E1
S1131250CB0189839A83AB83BC8389859A85FC01FE
S113126082819381A481B581BC01CD0129813A8118
S11312704B815C810E94300EDC01CB018D839E8307
S1131280AF83B8878D819E81AF81B885BC01CD01C4
S11312902A96CDBFDEBFDF91CF910895CF92EF9212
S11312A00F931F93CF93DF93CDB7DEB72A97CDBFAC
S11312B0DEBF89839A836B837C834D835E830F8334
S11312C0188729873A878B819C816FEF7FEF46E0EF
S11312D020E00E94DC0689819A812B813C81FC01FB
S11312E0208331838D819E8160E041E023E003E02F
S11312F0EE24CC24C3940E94680189819A812D81B3
S11313003E81FC012683378329813A818F81988528
S1131310A985BA85F90182839383A483B5832A9628
S1131320CDBFDEBFDF91CF911F910F91EF90CF9092
S11313300895CF93DF93CDB7DEB7DF91CF910895B2
S11313401F93CF93DF93CDB7DEB76197CDBFDEBFD9
S11313506E877F87888B998B198280E090E0DC010F
S11313608A879B87AC87BD8780E090E4ACE9B6E4CC
S11313708A839B83AC83BD832091152030911620F2
S113138040911720509118206E857F85888999890E
S11313900E94C70DDC01CB01BF778E839F83A88792
S11313A0B9878091152090911620A0911720B091B3
S11313B018208A879B87AC87BD8738C089818F5F57
S11313C089838E819F81A885B9858A839B83AC8319
S11313D0BD838981882F90E0880F991F880F991FFA
S11313E08B5E9F4DFC0180819181A281B3818A87AC
S11313F09B87AC87BD878981882F90E0880F991FD0
S1131400880F991F8B5E9F4DFC01208131814281A1
S113141053816E857F85888999890E94C70DDC0177
S1131420CB01BF778E839F83A887B98711E06E8134
S11314307F81888599852A813B814C815D810E94C9
S11314402C0E88230CF010E0112321F089818835BB
S113145008F4B4CF8981882F90E001972CE030E024
S1131460B9010E946E106196CDBFDEBFDF91CF91AE
S11314701F910895CF93DF93CDB7DEB72797CDBFE4
S1131480DEBF6C837D838E839F8385E791E28983AE
S11314909A838C819D81AE81BF81BC01CD010E9464
S11314A0A0098B838B81882F90E0880F991F880F68
S11314B0991F880F991F29813A81820F931F2796BC
S11314C0CDBFDEBFDF91CF910895EF92FF920F93CE
S11314D01F93CF93DF93CDB7DEB76097CDBFDEBF49
S11314E069877A878B879C872D873E874F87588BA0
S11314F06D857E858F85988929853A854B855C85A0
S11315000E94300EDC01CB0189839A83AB83BC83B8
S113151080E090E0A0E0B0E48D839E83AF83B88741
S113152089819A81AB81BC81BC01CD010E947F0F6E
S11315307B018C018D819E81AF81B885BC01CD0179
S11315400E947F0F9B01AC01C801B7010E94300EBD
S1131550DC01CB01BC01CD0120E030E046E954E4DC
S11315600E94BF0FDC01CB01BC01CD016096CDBF51
S1131570DEBFDF91CF911F910F91FF90EF900895FF
S1131580CF93DF930F920F92CDB7DEB789839A83FF
S11315900F900F90DF91CF9108950F93CF93DF9326
S11315A00F920F92CDB7DEB789839A8380913C2244
S11315B090913D2229813A81B90142E020E002E084
S11315C00E947F030F900F90DF91CF910F910895A8
S11315D00F93CF93DF930F920F92CDB7DEB789832A
S11315E09A8380913C2290913D2229813A81B901CC
S11315F042E020E00EE00E947F030F900F90DF9105
S1131600CF910F9108950F93CF93DF93CDB7DEB7AA
S11316102B97CDBFDEBF8B878B85992787FD909550
S11316209E012F5F3F4FB9014AE050E00E949510A0
S113163080913C2290913D229E012F5F3F4FB90142
S113164043E020E006E00E947F032B96CDBFDEBF7F
S1131650DF91CF910F9108950F93CF93DF93CDB77F
S1131660DEB72B97CDBFDEBF8B878B85882F90E0AD
S11316709E012F5F3F4FB9014AE050E00E94951050
S113168080913C2290913D229E012F5F3F4FB901F2
S113169043E020E009E00E947F032B96CDBFDEBF2C
S11316A0DF91CF910F910895CF93DF930F92CDB730
S11316B0DEB789830F90DF91CF9108950F93CF9375
S11316C0DF930F920F92CDB7DEB78A838A8195E0BC
S11316D0692F0E94611089838981882369F480912C
S11316E03C2290913D2225E332E2B90142E021E01F
S11316F007E00E947F0317C08981885F89838981FD
S113170018161CF081E0898305C089818F3014F09C
S11317108EE0898380913C2290913D2229816CE75F
S113172041E00E9445020F900F90DF91CF910F91FD
S113173008950F93CF93DF93CDB7DEB780913C220A
S113174090913D2225ED31E2B90140E220E000E034
S11317500E947F03DF91CF910F9108950F93CF9350
S1131760DF93CDB7DEB780913C2290913D2225EFE7
S113177031E2B90140E220E000E00E947F03DF9102
S1131780CF910F9108950F93CF93DF93CDB7DEB729
S113179080913C2290913D2225E132E2B90140E260
S11317A020E000E00E947F03DF91CF910F91089524
S11317B01F920F920FB60F92009038000F92009074
S11317C039000F9200903B000F9211242F933F9306
S11317D04F935F936F937F938F939F93AF93BF9335
S11317E0EF93FF93CF93DF93CDB7DEB780913E2283
S11317F0813041F480E097E060E00E942805109277
S11318003E2208C080E097E06FEF0E94280581E047
S113181080933E22DF91CF91FF91EF91BF91AF91E1
S11318209F918F917F916F915F914F913F912F91F4
S11318300F9000923B000F90009239000F9000929D
S113184038000F900FBE0F901F9018951F920F92A3
S11318500FB60F92009038000F92009039000F924B
S113186000903B000F9211242F933F934F935F936B
S11318706F937F938F939F93AF93BF93EF93FF9354
S1131880CF93DF93CDB7DEB78FE392E20E94CA0510
S1131890DF91CF91FF91EF91BF91AF919F918F9184
S11318A07F916F915F914F913F912F910F90009293
S11318B03B000F90009239000F90009238000F9077
S11318C00FBE0F901F901895EF920F931F93CF9315
S11318D0DF93CDB7DEB7E997CDBFDEBF80E590E0FB
S11318E08A839B838A819B8127E0FC01208381E595
S11318F090E08C839D838C819D81FC018081877025
S1131900898306C08C819D81FC01808187708983D5
S113191089818730B9F780E690E08E839F838E813A
S11319209F8121E0FC0120830E94530180EB9BE016
S11319308887998780EA96E08A879B87CE01C89634
S1131940488559852A853B85BA01A9010E94D5019C
S113195080E09AE08C879D8780E896E08E879F8759
S11319608C859D852E853F85B90146E02DE830E0C4
S11319700E947D0680E499E0888B998B80E893E04F
S11319808A8B9B8B80E094E2A4EFB6E48C8B9D8BD6
S1131990AE8BBF8B88E492E2688979894A895B8936
S11319A00C891D892E893F890E944E0980E297E0A7
S11319B0888F998F80EC97E08A8F9B8F80EE97E0D9
S11319C08C8F9D8F8FE392E2488D598D2A8D3B8DAC
S11319D0EC8DFD8DBA01A90122E08F01EE240E9455
S11319E0600580E097E08E8F9F8F8E8D9F8D61E0E4
S11319F00E94CA0483E00E94BB0382E00E94BB03EE
S1131A0081E00E94BB0310923E22789481E488A373
S1131A1082E488A383E488A381E688A382E688A37A
S1131A2083E688A380E388A38091372288A38FE389
S1131A3092E20E94180680E896E9A8E1BBE48AA72E
S1131A409BA7ACA7BDA76AA57BA58CA59DA520E0F7
S1131A5030E04AE753E40E94BF0FDC01CB018EA7BC
S1131A609FA7A8ABB9AB11E06EA57FA588A999A9DA
S1131A7020E030E040E85FE30E942C0E88230CF065
S1131A8010E0112329F081E090E08AAB9BAB46C0C3
S1131A9011E06EA57FA588A999A920E03FEF4FE743
S1131AA057E40E94760F18160CF010E0112361F130
S1131AB06AA57BA58CA59DA520E030E040E251E419
S1131AC00E94BF0FDC01CB01BC01CD010E94980E26
S1131AD0DC01CB018AAB9BAB12C089E190E08CABFB
S1131AE09DAB8CA99DA98C01C8010197F1F78C01CC
S1131AF00CAB1DAB8AA99BA901978AAB9BAB8AA9A6
S1131B009BA9009751F717C06EA57FA588A999A92D
S1131B100E94980EDC01CB018AAB9BAB8AA99BA9DE
S1131B208EAB9FAB8EA99FA98C01F8013197F1F779
S1131B308F010EAB1FAB809150229091512289A34B
S1131B4088E492E20E941209DC01CB01BC01CD01C0
S1131B500E94980EDC01CB018AA39BA360E070E095
S1131B608DED93E40E943A0A8CA39DA360E070E09B
S1131B708CED93E420E030E04DED53E40E94650ADF
S1131B80DC01CB018EA39FA3A8A7B9A750CF5058BF
S1131B90BB27AA270ED070C161D130F066D120F0E6
S1131BA031F49F3F11F41EF456C10EF4E095E7FBA7
S1131BB04CC1E92F72D180F3BA1762077307840707
S1131BC0950718F071F49EF58AC10EF4E0950B2E7A
S1131BD0BA2FA02D0B01B90190010C01CA01A0017B
S1131BE01124FF27591B99F0593F50F4503E68F1D6
S1131BF01A16F040A22F232F342F4427585FF3CF17
S1131C00469537952795A795F0405395C9F77EF4E7
S1131C101F16BA0B620B730B840BBAF09150A1F030
S1131C20FF0FBB1F661F771F881FC2F70EC0BA0FB6
S1131C30621F731F841F48F4879577956795B7953E
S1131C40F7959E3F08F0B3CF9395880F08F0992736
S1131C50EE0F979587950895D4D008F481E0089500
S1131C600CD00AC102D140F0F9D030F021F45F3F2A
S1131C7019F0EBC0511134C1EEC00FD198F3992380
S1131C80C9F35523B1F3951B550BBB27AA2762173C
S1131C907307840738F09F5F5F4F220F331F441F81
S1131CA0AA1FA9F333D00E2E3AF0E0E830D09150B9
S1131CB05040E695001CCAF729D0FE2F27D0660FA6
S1131CC0771F881FBB1F261737074807AB07B0E8E5
S1131CD009F0BB0B802DBF01FF2793585F4F2AF0FB
S1131CE09E3F510568F0B1C0FBC05F3FECF3983EE6
S1131CF0DCF3869577956795B795F7959F5FC9F758
S1131D00880F911D9695879597F90895E1E0660FE0
S1131D10771F881FBB1F621773078407BA0720F059
S1131D20621B730B840BBA0BEE1F88F7E0950895C2
S1131D30BCD088F09F5790F0B92F9927B751A0F0E5
S1131D40D1F0660F771F881F991F1AF0BA95C9F74B
S1131D5012C0B13081F0C3D0B1E00895C0C0672F84
S1131D60782F8827B85F39F0B93FCCF386957795FB
S1131D706795B395D9F73EF49095809570956195E4
S1131D807F4F8F4F9F4F0895E89409C097FB3EF40F
S1131D9090958095709561957F4F8F4F9F4F9923B4
S1131DA0A9F0F92F96E9BB279395F6958795779532
S1131DB06795B795F111F8CFFAF4BB0F11F460FFF2
S1131DC01BC06F5F7F4F8F4F9F4F16C0882311F04A
S1131DD096E911C0772321F09EE8872F762F05C05E
S1131DE0662371F096E8862F70E060E02AF09A95F9
S1131DF0660F771F881FDAF7880F9695879597F9EE
S1131E000895990F0008550FAA0BE0E8FEEF161687
S1131E101706E807F907C0F012161306E407F507DA
S1131E2098F0621B730B840B950B39F40A2661F04E
S1131E30232B242B252B21F408950A2609F4A140F1
S1131E40A6958FEF811D811D089597F99F6780E8FE
S1131E5070E060E008959FEF80EC089500240A94F8
S1131E601616170618060906089500240A94121671
S1131E701306140605060895092E0394000C11F4A4
S1131E80882352F0BB0F40F4BF2B11F460FF04C051
S1131E906F5F7F4F8F4F9F4F089557FD9058440FAA
S1131EA0551F59F05F3F71F04795880F97FB991FB5
S1131EB061F09F3F79F08795089512161306140672
S1131EC0551FF2CF4695F1DF08C0161617061806FF
S1131ED0991FF1CF86957105610508940895E894DA
S1131EE0BB2766277727CB0197F908958ADF08F483
S1131EF08FEF08950EF0A6C0AECF6894A6CFD5DFBD
S1131F00C8F39923D1F3C6F3DF93CF931F930F93B1
S1131F10FF92C92FDD2788232AF02197660F771FA8
S1131F20881FDAF720E030E040E85FEB9FE3883970
S1131F3020F0803E30F021968F772ADEECEFF1E03E
S1131F4003C026DEE9E2F2E08BD08B01BE01EC0196
S1131F50FB2E6F5771097595771F880B990B16DF48
S1131F6028E132E741E35FE316D0AF2D9801AE01DB
S1131F70FF900F911F91CF91DF911BDE7DCF0BD08E
S1131F807BCF6CDF28F071DF18F0952309F05DCF6B
S1131F9062CF1124A5CF81DFA0F3959FD1F3950FD4
S1131FA050E0551F629FF001729FBB27F00DB11DD9
S1131FB0639FAA27F00DB11DAA1F649F6627B00D69
S1131FC0A11D661F829F2227B00DA11D621F739F52
S1131FD0B00DA11D621F839FA00D611D221F749F60
S1131FE03327A00D611D231F849F600D211D822FA7
S1131FF0762F6A2F11249F5750408AF0E1F08823EE
S11320004AF0EE0FFF1FBB1F661F771F881F9150FA
S11320105040A9F79E3F510570F017CF61CF5F3F45
S1132020ECF3983EDCF3869577956795B795F7952D
S1132030E7959F5FC1F7FE2B880F911D96958795B5
S113204097F908959F3F31F0915020F48795779543
S11320506795B795880F911D9695879597F908957B
S1132060DF93CF931F930F93FF92EF92DF927B0145
S11320708C01689405C0DA2EEF018DDFFE01E8942F
S1132080A5912591359145915591AEF3EF0191DDDF
S1132090FE019701A801DA9479F7DF90EF90FF90A1
S11320A00F911F91CF91DF910895991B79E004C09E
S11320B0991F961708F0961B881F7A95C9F7809583
S11320C0089587FB082E062687FD819567FD619597
S11320D0ECDF0EF4919507FC8195089597FB092E8A
S11320E007260AD077FD04D00CD006D000201AF4BD
S11320F0709561957F4F0895F6F7909581959F4F60
S11321000895AA1BBB1B51E107C0AA1FBB1FA6173A
S1132110B70710F0A61BB70B881F991F5A95A9F78C
S113212080959095BC01CD010895FB019F01E89431
S11321304230C4F04532B4F44A3029F497FB1EF41B
S1132140909581959F4F642F77270E948110805D21
S11321508A330CF0895D8193CB010097A1F716F4C3
S11321605DE251931082C9010C94B610DC01FC01AC
S1132170672F71917723E1F7329704C07C916D93B7
S113218070836291AE17BF07C8F30895F894FFCF28
S1132190004010500100020004000800400000014B
S11321A0000408101814D082451FF17645F614690E
S11321B04500005C450AA74F455CFF43455CFF387A
S11321C045489D2E4552D0244552901B451FD5129B
S11321D0455C970A4500D00245F6F0F6441F15E920
S11321E0440000DC440AA7CF445CFFC3445CFFB84E
S11321F0441F9DAE4452D0A44452909B441FD59298
S1132200445C978A4400D0824417F17644FE1469F2
S11322104400005C44FAA64F446DFF43444CFF382D
S1132220442F9D2E4452D0244442901B441FD51267
S1132230445C970A4410D0024406F1F643FE14E9C4
S1132240430000DC430AA7CF435CFFC3433BFFB812
S1132250432F9DAE4362D0A44342909B431FD5922B
S1132260436D978A4321D0824327F17643FE146954
S11322704300005C43E9A64F437DFF43433BFF38E3
S1132280432F9D2E4362D0244321901B43FED4123E
S1132290434C970A4321D0024327F1F642FE14E946
S11322A0420000DC42E9A6CF4270FFC34248FFB8B7
S11322B0423C9DAE4255D0A4423B909B4218D592DD
S11322C04266978A4214D082420DF17642FE146926
S11322D04200005C4204A74F4263FF434248FF3878
S11322E0422F9D2E4248D0244248901B4218D512BA
S11322F04259970A4214D002420DF1F641E414E91E
S1132300410000DC414320000000000000422000A6
S1132310000000000041232F426200000041200021
S1132320000000000047232F416200000047200006
S1132330000000000046232F4762000000462000F2
S11323400000000000452000000000000044232F8E
S11323504562000000442000000000000043232FD9
S113236044620000004E3A20202020202020A22099
S1132370204B3A20206220202020202020202020D2
S113238020202020234E3A202020202020202020FE
S1132390204B3A20206220202020202020202020B2
S11323A02020202023202020202042504D3A20208D
S11323B020202020206220202020202020202020D7
S10F23C020202020233E3E616263640064
S9030000FC
